:100000000C9429430C945A430C945A430C945A432D
:100010000C945A430C945A430C945A430C945A43EC
:100020000C945A430C945A430C945A430C94A6E5EE
:100030000C945A430D948CB10C945A430C945A432B
:100040000C945A430D94592C0C945A430C945A43D3
:100050000C945A430C945A430D940D4B0D948AAB57
:100060000C945A430C9453580C945A430C945A438E
:100070000C945A430C945A430C945A430C945A438C
:100080000C945A430C945A430C945A430C945A437C
:100090000C9497580C945A430C945A430C945A431A
:1000A0000C945A430C945A430C945A430C945A435C
:1000B0000C945A430C945A430C945A430C945A434C
:1000C0000C945A430C945A430C945A430C94D44CB9
:1000D0000C945A430C945A430C945A430C945A432C
:1000E0000C945A43B4E9B8E9BEE9C9E9E1E9FEE98B
:1000F0002DEA5FEA69024301A7013B01370175025E
:10010000B901650161025B0157023D017D028F016A
:100110000302AD01970135025D01090239014F016A
:10012000DB016901BD01D501EF01AF0171013902A8
:10013000DD01AB01C5011902A501A501A501490118
:10014000490149017F012D0249019D01DF011B0287
:1001500015025D02ED017F02570189013702B301EB
:1001600013020502950167027F022B0233029B01F5
:10017000850131025B02FD010D0221027501590268
:1001800073015102910199014F02A90121021F023D
:100190004B026F01084AD73B3BCE016E84BCBFFDCA
:1001A000C12F3D6C74319ABD56833DDA3D00C77F47
:1001B00011BED9E4BB4C3E916BAAAABE00000080E0
:1001C0003F05A84CCDB2D44EB93836A9020C50B96F
:1001D000918688083CA6AAAA2ABE000000803F0794
:1001E000634236B79BD8A71A39685618AEBAAB55D2
:1001F0008C1D3CB7CC5763BD6DEDFD753EF6177297
:1002000031BF000000803F08000000BE9224491268
:100210003EABAAAA2ABECDCCCC4C3E00000080BE8C
:10022000ABAAAAAA3E00000000BF000000803F0069
:1002300000000000084178D3BB4387D1133D190E5D
:100240003CC3BD4282AD2B3E68EC8276BED98FE1C5
:10025000A93E4C80EFFFBE01C4FF7F3F00000000BD
:1002600000000D94FA620D9418520D9437640D94A9
:10027000E0100D94198C0D94F7100D9414840D94C6
:100280002D7E0D943D130D9441110D940C100D9481
:10029000F69F0D94A78D0D94A1730D94A7090D944D
:1002A0002F8C0D9432100D94784C0D94DF620D94C8
:1002B000F3AC0D94E8550D9400840D947F840D9457
:1002C0002E100D94E69B0D947D630D94C5110D9435
:1002D00038560D94528C0D9443130D94F3570D948E
:1002E000B9AD0D945F8D0D9495AD0D948BAD0D94BE
:1002F0003D640D94DE520D9411100D94E8570D9449
:10030000E18D0D9404710D94175A0D9484AD0D94E4
:1003100042540D94FBAC0D94DE4C0D9407100D94DB
:1003200048840D949DAD0D946A630D9430AD0D9489
:1003300061840D94A3AD0D9458AD0D94E78D0D948B
:10034000C24C0D94B3100D942A100D94DE8D0D94B3
:100350000E110D94ABAD0D948F8D0D9452840D94B0
:10036000458D0D94B84C0D940DAD0D9402100D9467
:10037000BC540D9463110D9471530D945F8C0D94C6
:10038000B4100D94234E0D949A580D94D88D0D945D
:10039000939F0D94844E0D947F540D9465510D944C
:1003A0002B640D9437830D9400750D947F8C0D9400
:1003B000E44F0D9422640D94428C0D947D8D0D9428
:1003C000CBAC0D94E84C0D9431630D948F5E0D947D
:1003D00037130D946F530D94B2100D94E9AC0D9436
:1003E000978C0D9440130D9493810D94E48B0D9490
:1003F00031560D94D74E0D94AC650D947AAD0D9495
:100400003A130D9450530D944D840D9421AD0D94D9
:100410007D5E0D9499840D941E630D9480AD0D94B2
:10042000AA510D9431640D9417AD0D94D5AC0D9473
:10043000BA4F0D94DB8D0D94D0AC0D94865E0D9467
:10044000B1AD0D94BEAD0D94DA4D0D9457630D947E
:10045000614C0D94A7610D9444AD0D94B48D0D9431
:10046000B6100D9487AD0D944EAD0D9470840D941F
:1004700003AD0D946A8D0D949A630D94456C0D94A3
:100480008D9F0D94B5100D94816A0D94F80F0D9405
:10049000854D0D9444630D94B5AD0D9485990D94DF
:1004A000A7AD0D9499AD0D94979F0D94BF580D94E1
:1004B0000F840D948FAD0D9476AD0D94DFAC0D943B
:1004C0007E730D942E120D94FC710D94384F0D9483
:1004D0003AAD0D9438110D940B630D942C100D94BE
:1004E00089530D9430100D94FD0F0D944C120D9402
:1004F00091620D94714C0D9407550D9429840D94BF
:1005000062AD0D94AE4C0D94E7620D94B09A6E619D
:100510006E00696E66006164635F696E69740A00EB
:100520003F3F00506F6C736B69004974616C696187
:100530006E6F004672616E6361697300457370612E
:100540006E6F6C0044657574736368004365737403
:10055000696E6100456E676C69736800FFFFFFFF9D
:100560005F5345435F4C414E4700000000000000D0
:10057000000000000000000000000000000000007B
:10058000000000000000000000000000000000006B
:10059000000000000000000000000000000000005B
:1005A000000000000000000000000000000000004B
:102F6000544D4320445249564552204F56455254E1
:102F7000454D50005A204F6666736574005A2070A4
:102F8000726F6265206F75742E20626564007A5FCF
:102F90006D696E3A20007A5F6D61783A20002057A3
:102FA00061746368646F6720526573657400556E61
:102FB0006B6E6F776E20636F6D6D616E643A202269
:102FC0000020536F66747761726520526573657473
:102FD00000486F6D6520582F59206265666F7265D5
:102FE000205A004F6E20004F666600446F6E6520C9
:102FF000736176696E672066696C652E002045787E
:103000007465726E616C2052657365740020427243
:103010006F776E206F757420526573657400FFFFC3
:103020004D4B322E352048617269626F20456469CC
:1030300074696F6E2072656164792E00FFFF5965B7
:103040007300FFFF596F752063616E20616C7761BB
:10305000797320726573756D652074686520576992
:103060007A6172642066726F6D2043616C6962726E
:103070006174696F6E202D3E2057697A6172642EEB
:1030800000FFFF50726568656174696E67206E6F3E
:103090007A7A6C652E20506C656173652077616962
:1030A000742E00FFFF416C6C20697320646F6E65A5
:1030B0002E204861707079207072696E74696E6735
:1030C0002100FFFF506C6561736520636865636B69
:1030D000206F75722068616E64626F6F6B20616E25
:1030E0006420666978207468652070726F626C6510
:1030F0006D2E205468656E20726573756D65207441
:1031000068652057697A617264206279207265620D
:103110006F6F74696E6720746865207072696E7471
:1031200065722E00FFFF496E666F207363726565DE
:103130006E00FFFF556E6C6F6164696E6720666993
:103140006C616D656E7400FFFF556E6C6F6164207D
:1031500066696C616D656E7400FFFF54656D706526
:103160007261747572652063616C69627261746901
:103170006F6E2069732066696E697368656420618B
:103180006E64206163746976652E2054656D702EBF
:103190002063616C6962726174696F6E2063616E35
:1031A0002062652064697361626C656420696E20C9
:1031B0006D656E752053657474696E67732D3E542A
:1031C000656D702E2063616C2E00FFFF54656D707D
:1031D0002E2063616C2E2020202020202020202003
:1031E00000FFFF53544F505045442E2000FFFF5323
:1031F000746F70207072696E7400FFFF49732073E2
:103200007465656C207368656574206F6E206865F1
:1032100061746265643F00FFFF4D6F64652020208C
:10322000205B537465616C74685D00FFFF4D6F64D3
:103230006520202020205B4E6F726D616C5D00FF69
:10324000FF4D6F646520202020205B73696C656EE4
:10325000745D00FFFF4D6F6465205B6869676820DF
:10326000706F7765725D00FFFF53657474696E67F8
:103270007300FFFF576972696E67206572726F7223
:1032800000FFFF4D6F746F7200FFFF436865636B53
:10329000696E672073656E736F72732000FFFF4362
:1032A0006865636B696E672062656420202020205A
:1032B00000FFFF5370696E6E696E6700FFFF4E6F0F
:1032C00074207370696E6E696E6700FFFF46616EF1
:1032D000207465737400FFFF53656C6674657374C6
:1032E000206661696C6564202000FFFF4C65667490
:1032F00020686F74656E642066616E3F00FFFF4654
:10330000726F6E74207072696E742066616E3F0019
:10331000FFFF776F726B446972206F70656E206675
:1033200061696C656400FFFF6F70656E206661699E
:103330006C65642C2046696C653A2000FFFF65725D
:10334000726F722077726974696E6720746F20667D
:10335000696C6500FFFF506C656173652072656D77
:103360006F766520737465656C207368656574207D
:1033700066726F6D20686561746265642E00FFFF80
:10338000526573756D696E67207072696E7400FFA7
:10339000FFF85265667265736800FFFF426C6163F7
:1033A0006B6F7574206F636375727265642E205243
:1033B00065636F766572207072696E743F00FFFFFF
:1033C000506C656173652070756C6C206F7574202E
:1033D00066696C616D656E7420696D6D65646961A7
:1033E00074656C7900FFFF5072696E742061626FC2
:1033F0007274656400FFFF506C65617365207072C4
:1034000065737320746865206B6E6F6220746F2023
:10341000756E6C6F61642066696C616D656E7400B9
:10342000FFFF5072656865617420746865206E6F77
:103430007A7A6C652100FFFF506F776572557000D6
:10344000FFFF506C65617365207761697400FFFF51
:10345000506C6561736520706C6163652073746581
:10346000656C207368656574206F6E206865617493
:103470006265642E00FFFF506C61636520612073FC
:1034800068656574206F6620706170657220756E66
:1034900064657220746865206E6F7A7A6C6520644A
:1034A0007572696E67207468652063616C69627209
:1034B0006174696F6E206F66206669727374203460
:1034C00020706F696E74732E2049662074686520C1
:1034D0006E6F7A7A6C6520636174636865732074BB
:1034E00068652070617065722C20706F776572203E
:1034F0006F666620746865207072696E74657220EC
:10350000696D6D6564696174656C792E00FFFF6F8C
:103510006B00FFFF4E6F7A7A6C6500FFFF4E6F0005
:10352000FFFF43616C6962726174696F6E00FFFF37
:10353000206F66203900FFFF4D6561737572696EFB
:1035400067207265666572656E6365206865696788
:103550006874206F662063616C6962726174696F60
:103560006E20706F696E7400FFFF4D61696E00FF21
:10357000FF4D313137204669727374206C61796573
:10358000722063616C2E00FFFF4C6F6164696E678F
:103590002066696C616D656E7400FFFF4C6F61643D
:1035A0002066696C616D656E7400FFFF43686F6F24
:1035B00073652066696C616D656E743A00FFFF4348
:1035C000686F6F73652065787472756465723A0010
:1035D000FFFF43616C696272617465205A00FFFFEE
:1035E00048656174696E6720646F6E652E00FFFF29
:1035F00048656174696E6700FFFF46696C2E207331
:10360000656E736F7220205B6F6E5D00FFFF466911
:103610006C2E2073656E736F72205B6F66665D0043
:10362000FFFF462E206175746F6C6F6164205B4EE6
:103630002F415D00FFFF5468657265206973207338
:1036400074696C6C2061206E65656420746F206DF8
:10365000616B65205A2063616C6962726174696F85
:103660006E2E20506C6561736520666F6C6C6F7791
:1036700020746865206D616E75616C2C20636861D3
:103680007074657220466972737420737465707308
:103690002C2073656374696F6E2043616C6962727C
:1036A0006174696F6E20666C6F772E00FFFF507239
:1036B000696E74657220686173206E6F7420626534
:1036C000656E2063616C69627261746564207965FE
:1036D000742E20506C6561736520666F6C6C6F771B
:1036E00020746865206D616E75616C2C2063686163
:1036F0007074657220466972737420737465707398
:103700002C2073656374696F6E2043616C6962720B
:103710006174696F6E20666C6F772E00FFFF4669DB
:103720006E697368696E67206D6F76656D656E741E
:103730007300FFFF206F66203400FFFF5365617246
:103740006368696E67206265642063616C69627298
:103750006174696F6E20706F696E7400FFFF43685B
:10376000616E67652066696C616D656E7400FFFF50
:10377000496E736572742066696C616D656E742044
:10378000696E746F20657874727564657220342E6A
:1037900020436C69636B207768656E20646F6E658B
:1037A0002E00FFFF496E736572742066696C616D4F
:1037B000656E7420696E746F2065787472756465C7
:1037C0007220332E20436C69636B207768656E200E
:1037D000646F6E652E00FFFF496E7365727420661C
:1037E000696C616D656E7420696E746F20657874A4
:1037F000727564657220322E20436C69636B20778A
:1038000068656E20646F6E652E00FFFF496E7365FC
:1038100072742066696C616D656E7420696E746F78
:1038200020657874727564657220312E20436C694E
:10383000636B207768656E20646F6E652E00FFFFF6
:1038400046696C616D656E74206578747275646923
:103850006E672026207769746820636F72726563D3
:103860007420636F6C6F723F00FFFF46616E2073C0
:103870007065656400FFFF46696C616D656E74007C
:10388000FFFF457874727564657200FFFF45525200
:103890004F523A00FFFF5072696E74657220737464
:1038A0006F707065642064756520746F2065727236
:1038B0006F72732E20466978207468652065727275
:1038C0006F7220616E6420757365204D393939201F
:1038D000746F20726573746172742E202854656D44
:1038E00070657261747572652069732072657365A5
:1038F000742E20536574206974206166746572208B
:1039000072657374617274696E672900FFFF656E7A
:10391000717565696E67202200FFFF656E647374C0
:103920006F7073206869743A2000FFFF6F70656ED6
:1039300000FFFF54524947474552454400FFFF43AB
:1039400072617368206465742E2020205B6F6E5D49
:1039500000FFFF4372617368206465742E20205B52
:103960006F66665D00FFFF43726173682064657473
:103970002E20205B4E2F415D00FFFF437261736874
:103980002064657465637465642E00FFFF436F6F88
:103990006C646F776E00FFFF506C65617365206328
:1039A0006C65616E20746865206E6F7A7A6C652034
:1039B000666F722063616C6962726174696F6E2EEA
:1039C00020436C69636B207768656E20646F6E6559
:1039D0002E00FFFF5072696E742066726F6D205367
:1039E0004400FFFF43616C6962726174696E672015
:1039F0005A00FFFF58595A2063616C696272617402
:103A0000696F6E206661696C65642E20506C65611B
:103A1000736520636F6E73756C7420746865206DB8
:103A2000616E75616C2E00FFFF426564206C6576E7
:103A3000656C696E67206661696C65642E205365EC
:103A40006E736F72206469646E7420747269676744
:103A500065722E20446562726973206F6E206E6FEE
:103A60007A7A6C653F2057616974696E6720666F6A
:103A7000722072657365742E00FFFF4265642048F2
:103A8000656174696E6700FFFF42656420646F6E54
:103A90006500FFFF42656400FFFF44697374616E57
:103AA0006365206265747765656E20746970206F48
:103AB0006620746865206E6F7A7A6C6520616E642A
:103AC0002074686520626564207375726661636541
:103AD00020686173206E6F74206265656E20736567
:103AE00074207965742E20506C6561736520666F53
:103AF0006C6C6F7720746865206D616E75616C2CDD
:103B000020636861707465722046697273742073F3
:103B1000746570732C2073656374696F6E204669D9
:103B2000727374206C617965722063616C69627272
:103B30006174696F6E2E00FFFF4C697665206164C9
:103B40006A757374205A00FFFF4D6F6465205B61D6
:103B500075746F20706F7765725D00FFFF4175743B
:103B60006F20686F6D6500504154393132355F52B6
:103B700045535F593D256868750A005041543931F5
:103B800032355F5245535F583D256868750A0055C8
:103B900053415254322072782046756C6C21212199
:103BA0000A0048617264636F6465642044656661FD
:103BB000756C742053657474696E6773204C6F6103
:103BC000646564004461746120726561642066729A
:103BD0006F6D20454550524F4D206E6F74207661B9
:103BE0006C69642E0053746F72656420736574741D
:103BF000696E677320726574726965766564002505
:103C0000534C696E65617220616476616E636520F4
:103C100073657474696E67733A0A2020204D3930D9
:103C200030204B252E3266202020452F44203D2079
:103C3000252E32660A00255346696C616D656E74E7
:103C40002073657474696E67733A204469736162A6
:103C50006C65640A00255346696C616D656E74205D
:103C600073657474696E67733A0A25532020204D7A
:103C70003230302044252E32660A002553526574B6
:103C8000726163743A20533D4C656E6774682028F6
:103C90006D6D2920463A537065656420286D6D2F3F
:103CA0006D29205A3A205A4C69667420286D6D2976
:103CB0000A25532020204D3230372053252E3266DE
:103CC0002046252E3266205A252E32660A2553526A
:103CD00065636F7665723A20533D45787472612052
:103CE0006C656E67746820286D6D2920463A5370A4
:103CF00065656420286D6D2F6D290A2553202020CD
:103D00004D3230382053252E32662046252E32661D
:103D10000A25534175746F2D526574726163743A4C
:103D200020533D3020746F2064697361626C652C90
:103D3000203120746F20696E746572707265742012
:103D4000657874727564652D6F6E6C79206D6F7611
:103D50006573206173207265747261637473206F80
:103D600072207265636F7665726965730A255320E8
:103D700020204D323039205325640A002553504904
:103D80004420686561746265642073657474696E4B
:103D900067733A0A25532020204D333034205025B4
:103DA0002E32662049252E32662044252E32660AA0
:103DB0000025535049442073657474696E67733AE3
:103DC0000A25532020204D3330312050252E3266D5
:103DD0002049252E32662044252E32660A002553BE
:103DE00053746570732070657220756E69743A0A39
:103DF000255320204D39322058252E326620592552
:103E00002E3266205A252E32662045252E32660A2D
:103E100025534D6178696D756D20666565647261C5
:103E200074657320286D6D2F73293A0A255320205D
:103E30004D3230332058252E32662059252E3266D9
:103E4000205A252E32662045252E32660A25534DEE
:103E50006178696D756D20616363656C657261740D
:103E6000696F6E20286D6D2F7332293A0A25532011
:103E7000204D3230312058256C752059256C752025
:103E80005A256C752045256C750A25534163636579
:103E90006C65726174696F6E3A20533D616363654E
:103EA0006C65726174696F6E2C20543D726574721A
:103EB00061637420616363656C65726174696F6EC0
:103EC0000A255320204D3230342053252E326620CF
:103ED00054252E32660A2553416476616E6365640B
:103EE000207661726961626C65733A20533D4D6959
:103EF0006E20666565647261746520286D6D2F7330
:103F0000292C20543D4D696E2074726176656C20B9
:103F1000666565647261746520286D6D2F73292C48
:103F200020423D6D696E696D756D207365676D65C5
:103F30006E742074696D6520286D73292C20583D9E
:103F40006D6178696D756D205859206A65726B20B6
:103F5000286D6D2F73292C20205A3D6D6178696D75
:103F6000756D205A206A65726B20286D6D2F73293C
:103F70002C2020453D6D6178696D756D2045206A66
:103F800065726B20286D6D2F73290A255320204DF3
:103F90003230352053252E32662054252E326620AD
:103FA00042252E32662058252E32662059252E3283
:103FB00066205A252E32662045252E32660A255364
:103FC000486F6D65206F666673657420286D6D2976
:103FD0003A0A255320204D3230362058252E32669D
:103FE0002059252E3266205A252E32660A00446159
:103FF00074612073746F72656420746F204545503E
:10400000524F4D206E6F742076616C69642E0053A0
:10401000657474696E67732053746F7265640045CC
:104020004550524F4D204572726F720025642062D8
:1040300079746573207772697474656E20746F206B
:10404000454550524F4D2061742061646472657320
:104050007320307825303478004433202D20526589
:1040600061642F577269746520454550524F4D0A5F
:1040700000FFFF5072657373206B6E6F6220746F68
:104080002070726568656174206E6F7A7A6C652045
:10409000616E6420636F6E74696E75652E00FFFF3C
:1040A0004B494C4C45442E2000FFFF5072696E7402
:1040B00065722068616C7465642E206B696C6C2875
:1040C000292063616C6C65642100FFFF48656174A1
:1040D000696E672064697361626C6564206279202F
:1040E0007361666574792074696D65722E00FFFFD7
:1040F000526573656E6400FFFF4D32323120496EA8
:1041000076616C69642065787472756465722000EC
:10411000FFFF4D32313820496E76616C696420654D
:10412000787472756465722000FFFF4D313039205C
:10413000496E76616C696420657874727564657225
:104140002000FFFF4D31303520496E76616C696487
:104150002065787472756465722000FFFF4D313000
:104160003420496E76616C69642065787472756478
:1041700065722000FFFF4D32303020496E76616C51
:1041800069642065787472756465722000FFFF4E63
:104190006F206D6F76652E00FFFF57616974206692
:1041A0006F7220757365722E2E2E00FFFF426564BC
:1041B000206C6576656C696E67206661696C656404
:1041C0002E2053656E736F72207472696767657213
:1041D000656420746F6F20686967682E2057616975
:1041E00074696E6720666F722072657365742E0045
:1041F000FFFF426564206C6576656C696E672066BA
:1042000061696C65642E2053656E736F72206469FA
:1042100073636F6E6E6563746564206F7220636193
:10422000626C652062726F6B656E2E2057616974D7
:10423000696E6720666F722072657365742E00FF69
:10424000FF537461626C6520616D6269656E7420F4
:1042500074656D70657261747572652032312D32CE
:104260003643206973206E65656465642061207241
:1042700069676964207374616E6420697320726574
:104280007175697265642E00FFFF506C656173651E
:104290002072756E2058595A2063616C6962726190
:1042A00074696F6E2066697273742E00FFFF536C21
:1042B0006565702E2E2E00FFFF506C6561736520C2
:1042C0006F70656E2069646C657220616E64207227
:1042D000656D6F76652066696C616D656E74206DC5
:1042E000616E75616C6C792E00FFFF5761732066FB
:1042F000696C616D656E7420756E6C6F616420739E
:1043000075636365737366756C3F00FFFF4F6C6484
:104310002073657474696E677320666F756E642EA2
:104320002044656661756C74205049442C204573A7
:1043300074657073206574632E2077696C6C2062DD
:1043400065207365742E00FFFF5761726E696E679A
:104350003A20626F7468207072696E74657220749E
:1043600079706520616E64206D6F74686572626F2C
:104370006172642074797065206368616E6765643A
:104380002E00FFFF5761726E696E673A2070726986
:104390006E7465722074797065206368616E6765FC
:1043A000642E00FFFF5761726E696E673A206D6F71
:1043B00074686572626F61726420747970652063DD
:1043C00068616E6765642E00FFFF2020506C616E8F
:1043D0006E657242756666657242797465733A20DD
:1043E00000FFFF2046726565204D656D6F72793A5A
:1043F0002000FFFF204C6173742055706461746568
:10440000643A2000706879736963616C20636F6F30
:104410007264696E617465733A2028252E33662CA8
:1044200020252E33662C20252E3366290A00776F2F
:10443000726C6420636F6F7264696E617465733A45
:104440002028252E33662C20252E33662C20252E61
:104450003366290A000A5A207368696674206170FD
:10446000706C6965643A252E33660A004B494C4CE2
:104470003A2025640A000025533A20256C640A2559
:10448000530A004E6F7420696E206661726D206D54
:104490006F64652E00416374697665204578747297
:1044A000756465723A2000496E76616C69642065B6
:1044B0007874727564657200795F6D696E3A200078
:1044C000785F6D696E3A20005265706F7274696E24
:1044D0006720656E6473746F702073746174757394
:1044E000000053494C454E54004E4F524D414C0034
:1044F0002553204D4F44453A2050657263656E74D4
:1045000020646F6E653A2025643B207072696E747A
:104510002074696D652072656D61696E696E6720D2
:10452000696E206D696E733A2025640A00456E64D9
:104530002066696C65206C69737400426567696EFA
:104540002066696C65206C6973740025643A2025C7
:10455000640A000A50494E44412074656D706572CA
:1045600061747572653A20252E3166205A20736871
:1045700069667420286D6D293A20252E3366000A5D
:10458000537465703A2025642F360A000A53746507
:10459000703A2025642F362028736B69707065642B
:1045A000290A50494E44412074656D7065726174EA
:1045B0007572653A202564205A20736869667420F4
:1045C000286D6D293A300A000A5A45524F3A202583
:1045D0002E33660A0073746172742074656D7065A1
:1045E0007261747572653A20252E31660A00256461
:1045F0002020252E326600255320583A20252E35BE
:104600006620593A20252E3566205A3A20252E3527
:10461000660A004E6F7420696E206661726D206DAF
:104620006F64652E0025640045303A2564205250A1
:104630004D0A50524E303A25642052504D0A002502
:10464000640020436F756E7420583A2000207C204F
:10465000417574686F723A20006F6B0A0020460043
:104660004731205A0020460047312045004D38335D
:104670000020423A0020453A00543A005A206C6922
:1046800076652061646A757374206F7574206F6637
:104690002072616E67652E2053657474696E6720A1
:1046A000746F20302E20436C69636B20746F20631D
:1046B0006F6E74696E75652E005A206C6976652080
:1046C00061646A757374206F7574206F66207261FF
:1046D0006E67652E2053657474696E6720746F2051
:1046E00030004D373031004175746F0020452F4444
:1046F0003D00416476616E6365204B3D0020573A72
:104700000020453A00543A0022283229005400493A
:104710006E76616C6964205420636F64652E005569
:104720006E6B6E6F776E204D20636F64653A202547
:1047300073200A006E6F2076616C696420636F6D70
:104740006D616E64002C20002C20002C20006E2F48
:1047500061002C20002C20002C20006E2F61002FE7
:1047600000503A005761697420666F722050494EBC
:104770004441207461726765742074656D70657260
:1047800061747572653A004C414E472053454C2088
:10479000464F524345440022283129003030303002
:1047A000303030302D303030302D303030302D3012
:1047B0003030302D303030303030303030303030FC
:1047C0000020555549443A0031002045585452556F
:1047D0004445525F434F554E543A004D4B322E35AF
:1047E0002048617269626F2045646974696F6E0068
:1047F000204D414348494E455F545950453A003198
:104800002E3000206261736564206F6E204D6172EE
:104810006C696E204649524D574152455F55524C86
:104820003A68747470733A2F2F6769746875622ED2
:10483000636F6D2F707275736133642F507275736F
:10484000612D4669726D776172652050524F544FE9
:10485000434F4C5F56455253494F4E3A00464952DA
:104860004D574152455F4E414D453A507275736107
:104870002D4669726D7761726520004D31313320AC
:10488000530020423A0020453A00543A0020503A62
:10489000002042403A0020403A00202F003A0020F9
:1048A0005400202F0020423A00202F006F6B20542C
:1048B0003A002569206D696E2C2025692073656397
:1048C00000496E76616C6964204D20636F64653ABF
:1048D000202573200A00556E6B6E6F776E2047207F
:1048E000636F64653A202573200A004D6573682064
:1048F000626564206C6576656C696E67206E6F74A6
:10490000206163746976652E000A002020000A4D3C
:104910006561737572656420706F696E74733A00B7
:104920000A5A2073656172636820686569676874F4
:104930003A20002C004E756D20582C593A2000204A
:104940006D6963726F6E7300457863657373697622
:104950006520626564206C6576656C696E672063AE
:104960006F7272656374696F6E3A20004732382047
:1049700057300050494E44412070726F6265206389
:10498000616C6962726174696F6E207374617274B4
:1049900000473238205730004D32340067636F646F
:1049A000655F4D37303120626567696E0A004D32B0
:1049B0003230205325690020453A00205A3A002021
:1049C000593A0020453A00205A3A0020593A0058F6
:1049D0003A0043616C6962726174696F6E2066614E
:1049E000696C65642120436865636B207468652089
:1049F0006178657320616E642072756E20616761F5
:104A0000696E2E004D323900627573793A207061FB
:104A10007573656420666F7220696E7075740062CC
:104A20007573793A2070617573656420666F7220C2
:104A30007573657200627573793A2070726F636581
:104A40007373696E67002055706C6F616420696EC6
:104A50002070726F6772657373004E6F762031320B
:104A6000203230313800436F6D70696C65643A20D4
:104A700000286E6F6E652C2064656661756C74200D
:104A8000636F6E66696729004E6F7620313220327F
:104A90003031382032313A31323A32320020332E3E
:104AA000342E322D313336300A0073746172740043
:104AB000466163746F7279205245534554001B5B05
:104AC000324A1B5B313B31484F726967696E616CDA
:104AD0002050727573612069331B5B323B33485041
:104AE0007275736120526573656172636800250099
:104AF000202020202020002020202020200045529F
:104B00004153494E4720616C6C20646174610046DA
:104B10006163746F727920524553455400FFFFFF63
:104B20000000A0400000A0400000004000007A43C8
:104B3000000056439AD95B4300000000000080C08B
:104B40009A99193E00007A430000524300005C43EA
:104B500000000000000080C09A99193E6563686FEC
:104B60003A004572726F723A0000002110422063D1
:104B7000308440A550C660E770088129914AA16B36
:104B8000B18CC1ADD1CEE1EFF131121002733252CE
:104B900022B5529442F772D662399318837BB35A86
:104BA000A3BDD39CC3FFF3DEE3622443342004019E
:104BB00014E664C774A44485546AA54BB5288509D6
:104BC00095EEE5CFF5ACC58DD5533672261116306E
:104BD00006D776F6669556B4465BB77AA719973826
:104BE00087DFF7FEE79DD7BCC7C448E5588668A7AE
:104BF000784008611802282338CCC9EDD98EE9AF76
:104C0000F9488969990AA92BB9F55AD44AB77A960D
:104C10006A711A500A333A122AFDDBDCCBBFFB9EC5
:104C2000EB799B588B3BBB1AABA66C877CE44CC5DD
:104C30005C222C033C600C411CAEED8FFDECCDCD15
:104C4000DD2AAD0BBD688D499D977EB66ED55EF4AD
:104C50004E133E322E511E700E9FFFBEEFDDDFFC65
:104C6000CF1BBF3AAF599F788F8891A981CAB1EB0A
:104C7000A10CD12DC14EF16FE18010A100C230E333
:104C8000200450254046706760B9839893FBA3DAEF
:104C9000B33DC31CD37FE35EF3B1029012F322D283
:104CA000323542145277625672EAB5CBA5A895897F
:104CB000856EF54FE52CD50DC5E234C324A01481D3
:104CC000046674476424540544DBA7FAB79987B88F
:104CD000975FE77EF71DC73CD7D326F2369106B023
:104CE0001657667676154634564CD96DC90EF92F8F
:104CF000E9C899E9898AB9ABA94458654806782773
:104D000068C018E1088238A3287DCB5CDB3FEB1E2E
:104D1000FBF98BD89BBBAB9ABB754A545A376A16C2
:104D20007AF10AD01AB32A923A2EFD0FED6CDD4DBE
:104D3000CDAABD8BADE89DC98D267C076C645C4512
:104D40004CA23C832CE01CC10C1FEF3EFF5DCF7CCE
:104D5000DF9BAFBABFD98FF89F176E367E554E7462
:104D60005E932EB23ED10EF01E7C3C3E5E2B3D3F4C
:104D70002F5B5D3B2C2A225C00FFFF536F7274692E
:104D80006E672066696C657300FFFF536F6D652069
:104D900066696C65732077696C6C206E6F74206235
:104DA0006520736F727465642E204D61782E204EDD
:104DB0006F2E206F662066696C657320696E2031E6
:104DC00020666F6C64657220666F7220736F7274F8
:104DD000696E67206973203130302E00FFFF436118
:104DE0006E6E6F7420656E7465722073756264698F
:104DF000723A2000FFFF53442063617264206F6B9E
:104E000000FFFF6F70656E526F6F74206661696C92
:104E1000656400FFFF766F6C756D652E696E697451
:104E2000206661696C656400FFFF534420696E6908
:104E300074206661696C004D3234004D3233202598
:104E400073006175746F25692E67004E6F7420536F
:104E500044207072696E74696E67005072696E7476
:104E6000207361766564005344207072696E74200B
:104E7000706175736564000A002F005344207072DE
:104E8000696E74696E672062797465200057726973
:104E900074696E6720746F2066696C653A200046FD
:104EA000696C652073656C65637465640020536983
:104EB0007A653A200046696C65206F70656E65649E
:104EC0003A20000A002E0044656C6574696F6E20FC
:104ED0006661696C65642C2046696C653A20004601
:104EE000696C652064656C657465643A002E002EFB
:104EF000002E002E004E6F77206672657368206664
:104F0000696C653A20004E6F7720646F696E672088
:104F100066696C653A20002220706F730022207051
:104F20006172656E743A2200535542524F5554498E
:104F30004E452043414C4C207461726765743A229F
:104F400000747279696E6720746F2063616C6C20E5
:104F50007375622D67636F64652066696C65732085
:104F60007769746820746F6F206D616E79206C654D
:104F700076656C732E204D4158206C6576656C20EB
:104F800069733A00256920686F757273202569205E
:104F90006D696E7574657300446F6E65207072691B
:104FA0006E74696E672066696C65004E6F204C698F
:104FB0006E65204E756D6265722077697468206336
:104FC0006865636B73756D2C204C617374204C693C
:104FD0006E653A20004C696E65204E756D62657293
:104FE000206973206E6F74204C617374204C696E5D
:104FF00065204E756D6265722B312C204C61737487
:10500000204C696E653A200054494D454F55543A3D
:1050100000FFFF4E6F20436865636B73756D2077EB
:10502000697468206C696E65206E756D6265722C9E
:10503000204C617374204C696E653A2000FFFF6359
:105040006865636B73756D206D69736D61746368FA
:105050002C204C617374204C696E653A20004D31F0
:1050600031300046756C6C2052582042756666657A
:10507000720022206661696C65643A20427566663A
:1050800065722066756C6C2100456E717565696E80
:105090006720746F207468652066726F6E743A20A2
:1050A00022002200456E717565696E6720746F205D
:1050B0007468652066726F6E743A20220022206642
:1050C00061696C65643A2042756666657220667532
:1050D0006C6C210022004D363030004653454E5353
:1050E0004F525F5245434F564552006673656E738B
:1050F0006F725F757064617465202D204D3630309D
:105100000A006673656E736F725F6572725F636EBD
:1051100074203D20300A004731204533204632308C
:105120003000473120452D33204632303000667341
:10513000656E736F725F6F715F726573756C7420EB
:1051400025530A002073685F617667203D2025683B
:1051500068752025530A002079645F717561203DD0
:105160002025750A002079645F646576203D20253E
:10517000750A002079645F6D696E203D20257520D9
:1051800025530A002079645F6D6178203D202575E4
:105190002025530A002079645F617667203D202531
:1051A0006868752025530A002065725F6D6178205C
:1051B0003D20256868752025530A002065725F73BD
:1051C000756D203D2025752025530A006673656E98
:1051D000736F725F6F715F726573756C740A002014
:1051E00079645F6D696E3D25752079645F6D6178C6
:1051F0003D25752079645F6176673D25752073686C
:105200005F6176673D25750A002073745F73756D65
:105210003D25752079645F73756D3D257520657238
:105220005F73756D3D25752065725F6D61783D25F5
:105230006868750A006673656E736F725F61757476
:105240006F6C6F61645F636865636B5F73746F70CD
:10525000202D206175746F6C6F6164204449534147
:10526000424C45440A006673656E736F725F6175E8
:10527000746F6C6F61645F636865636B5F737461A7
:105280007274202D206175746F6C6F616420454EBF
:1052900041424C45440A006673656E736F725F6FDE
:1052A000715F6D656173737572655F73746F702C78
:1052B00020256868752073616D706C65730A0066DF
:1052C00073656E736F725F6F715F6D656173737518
:1052D00072655F73746172740A00504154393132DF
:1052E000355F696E69743A256868750A00465365CA
:1052F0006E736F722025530A0044495341424C4556
:10530000440A00454E41424C454400504154393115
:1053100032355F696E69743A256868750A0066738C
:10532000656E736F725F726573746F72655F7072B2
:10533000696E745F616E645F636F6E74696E7565CC
:105340000A006673656E736F725F73746F705F616E
:105350006E645F736176655F7072696E740A005087
:10536000415439313235206E6F7420726573706F1D
:105370006E64696E672028256429210A00000103F4
:10538000161C0800000000110A04110A041F1F1F48
:105390001F1F1F1F1F0000000000110A04000E1332
:1053A00015110E00000004120912040000001C1F59
:1053B00011111F00000006191803130C00040E1F22
:1053C000041C000000040A0A0A0A11110E0C121231
:1053D0000C00000000001F1511151F00002563259B
:1053E0002D3138532563002563252E3132533A255C
:1053F00073252B30362E33660020202020202020DD
:105400002020202020202020202020202000256374
:10541000252E3132533A2573252B30362E31660036
:105420002563252E3135533A25732533640045789D
:1054300072656D65207370616E206F66207468659B
:10544000205A2076616C7565732100203C2000573E
:1054500041524E494E473A2046726F6E7420706F2B
:10546000696E74206E6F7420726561636861626C2E
:10547000652E205920636F6F7264696E6174653A9E
:105480000000497465726174696F6E3A2000000013
:105490004041000000400000E442000000400000E5
:1054A000574300000040000057430000C442000082
:1054B000E4420000C442000040410000C442000039
:1054C0004041000042430000E4420000424300002B
:1054D000574300004243000040410000804000006C
:1054E0005C430000804000005C4300004443000037
:1054F00040410000444346696C616D656E74206EE6
:1055000072206F7574206F662072616E676521006E
:10551000FFFF506C656173652072656D6F76652065
:1055200066696C616D656E7420616E642074686577
:105530006E20707265737320746865206B6E6F6285
:105540002E00FFFF456A656374696E672066696CAB
:10555000616D656E7400FFFF506C65617365207549
:105560007064617465206669726D77617265206927
:105570006E20796F7572204D4D55322E205761691E
:1055800074696E6720666F722072657365742E0091
:10559000FFFF52656D6F7665206F6C642066696CE5
:1055A000616D656E7420616E642070726573732026
:1055B000746865206B6E6F6220746F207374617203
:1055C00074206C6F6164696E67206E657720666910
:1055D0006C616D656E742E00FFFF4D4D55204F4B75
:1055E0002E20526573756D696E672E2E2E00FFFF9B
:1055F0004D4D55204F4B2E20526573756D696E676A
:1056000020706F736974696F6E2E2E2E00FFFF4D30
:105610004D55204F4B2E20526573756D696E672076
:1056200074656D70657261747572652E2E2E00FF43
:10563000FF4D4D55206E656564732075736572204E
:10564000617474656E74696F6E2E2046697820747B
:10565000686520697373756520616E642074686580
:105660006E20707265737320627574746F6E206F34
:105670006E204D4D5520756E69742E004D4D55327E
:10568000206669726D776172652076657273696FE5
:105690006E20696E76616C69642E20526571756941
:1056A0007265642076657273696F6E3A20627569FF
:1056B0006C64206E756D626572202564206F7220A7
:1056C0006869676865722E004D37303120453400B7
:1056D0004D373031204533004D37303120453200D1
:1056E0004D373031204531004D37303120453000C5
:1056F0004D373031204534004D37303120453300AF
:105700004D373031204532004D37303120453100A2
:105710004D3730312045300046696C616D656E74DF
:10572000206F7574206F662072616E676520256436
:10573000200A004D4D552073746172747320726598
:1057400073706F6E64696E670A004D4D55206E6F01
:105750007420726573706F6E64696E670A00462507
:10576000642025640A004D4D55203C3D20274625E8
:1057700064202564270A0058300A004D3630300076
:105780004D363030204155544F004653454E534F0F
:10579000525F5245434F5645520025686875005088
:1057A000300A0052300A004525640A0055300A00CC
:1057B00043300A004C25640A005425640A004D4D0C
:1057C00055202D20454E41424C45440025686875C2
:1057D0000050300A004D310A004D4D55207665725B
:1057E00073696F6E2076616C6964002575005332B1
:1057F0000A002575004D4D55206E6F74207265733B
:10580000706F6E64696E67202D2044495341424C8D
:1058100045440053310A0073746172740A006F6B5F
:105820000A000000803F555585410000803F000080
:10583000C84100000040555505420000C03F00002F
:1058400048420000204055558542000070C1ABAA77
:10585000A642000060C10000A0410000C0C00000DE
:10586000204100002041ABAA3A41000020C155551B
:10587000D540000048C25555054220746F6F206C1A
:105880006F6E6720657874727573696F6E207072C1
:105890006576656E74656400FFFF20636F6C64203D
:1058A000657874727573696F6E2070726576656E57
:1058B0007465640045303A20005A3A2000593A2075
:1058C00000583A20004D53312C4D53322050696E10
:1058D000730A00FFFF537465707261746520746F02
:1058E0006F20686967683A2000205A3A0020593AC8
:1058F0000020583A0024F4D43050C38E20C2A24075
:1059000017828B7011127A910D816CD90AA861E10E
:1059100008C7586607615143061E4B5D05C145A780
:10592000041A411104093D9803713931034036DBF3
:105930000265339102D4305402802E1D02632CEE96
:1059400001752AC501B028A001102781018F2564A7
:10595000012B244B01E0223401AC211F018D200DCD
:1059600001801FFC00841EED00971DDF00B81CD2D3
:1059700000E61BC600201BBC00641AB200B219A8C6
:10598000000A19A0006A189900D117910040178BDE
:1059900000B516840031167E00B31579003A1573F0
:1059A00000C7146F0058146A00EE13660088136372
:1059B0000025135E00C7125B006C125700151254CD
:1059C00000C111510070114F0021114B00D6104938
:1059D000008D1047004610440002104200C00F40E6
:1059E00000800F3E00420F3C00060F3B00CB0E38FC
:1059F00000930E37005C0E3500270E3400F30D3295
:105A000000C10D3100900D3000600D2E00320D2DC3
:105A100000050D2C00D90C2B00AE0C2900850C299B
:105A2000005C0C2700350C27000E0C2600E80B2428
:105A300000C40B2400A00B23007D0B23005A0B2174
:105A400000390B2100180B2000F80A1F00D90A1E8C
:105A500000BB0A1E009D0A1D00800A1D00630A1C6F
:105A600000470A1B002C0A1B00110A1A00F7091A2A
:105A700000DD091900C4091900AB091900920917C2
:105A8000007B091800630917004C09160036091637
:105A900000200916000A091500F5081500E0081491
:105AA00000CC081400B8081400A4081400900813CF
:105AB000007D0812006B08130058081200460812F7
:105AC0000034081100230811001208110001081108
:105AD00000F0071000E0071000D0071000C007100A
:105AE00000B0070F00A107100091070E0083070FF9
:105AF0000074070F0065070E0057070E0049070ED8
:105B0000003B070D002E070E0020070D0013070DA8
:105B10000006070D00F9060C00ED060D00E0060C6E
:105B200000D4060C00C8060C00BC060C00B0060C25
:105B300000A4060B0099060C008D060B0082060BD4
:105B40000077060B006C060B0061060A0057060B77
:105B5000004C060A0042060A0038060A002E060A11
:105B60000024060A001A060A001006090007060AA1
:105B700000FD050900F4050900EB050900E205092F
:105B800000D9050900D0050900C7050900BE0509AF
:105B900000B5050800AD050800A50509009C05082D
:105BA00000940508008C050800840508007C0508A1
:105BB00000740508006C050700650508005D050711
:105BC00000560508004E0507004705070040050878
:105BD0000038050700310507002A050700230507DF
:105BE000001C050600160507000F0507000805063E
:105BF0000002050700FB040600F5040700EE04069A
:105C000000E8040600E2040700DB040600D50406F1
:105C100000CF040600C9040600C3040600BD040644
:105C200000B7040600B1040500AC040600A6040693
:105C300000A00405009B04060095040500900406DE
:105C4000008A04050085040500800406007A040526
:105C50000075040500700405006B0405006604056A
:105C600000610405005C04050057040500520405AA
:105C7000004D04050048040500430405003E0404EB
:105C8000003A04050035040500300404002C040526
:105C90000027040400230405001E0404001A040461
:105CA0000016040500110404000D04040009040595
:105CB000000404040000040400FC030400F80304CE
:105CC00000F4030400F0030400EC030400E8030400
:105CD00000E4030400E0030400DC030400D8030430
:105CE00000D4030400D0030400CC030400C8030361
:105CF00000C503030024F404D9201BC40C5C0E98D7
:105D000004C4095F0265077101F405F900FB04B3DF
:105D10000048048700C10369005803550003034588
:105D200000BE023A008402310053022A00290225F3
:105D30000004022000E4011C00C8011900AF011793
:105D4000009801140084011300710110006101101A
:105D50000051010E0043010D0036010B002B010B19
:105D60000020010B00150109000C010900030108C6
:105D700000FB000800F3000800EB000700E4000649
:105D800000DE000600D8000600D2000600CC0005A8
:105D900000C7000500C2000500BD000400B90004F2
:105DA00000B5000400B1000400AD000400A9000427
:105DB00000A5000300A20003009F0004009B000355
:105DC0000098000300950002009300030090000378
:105DD000008D0002008B0003008800020086000294
:105DE0000084000300810002007F0002007D0002A9
:105DF000007B0002007900020077000100760002BB
:105E0000007400020072000100710002006F0002C5
:105E1000006D0001006C0002006A000100690002D0
:105E200000670001006600010065000100640002D7
:105E3000006200010061000100600001005F0002DB
:105E4000005D0001005C0001005B0001005A0001E0
:105E500000590001005800010057000100560001E0
:105E600000550001005400010053000000530001E0
:105E7000005200010051000100500001004F0001DC
:105E8000004E0000004E0001004D0001004C0001DA
:105E9000004B0000004B0001004A000100490001D6
:105EA00000480000004800010047000100460000D3
:105EB00000460001004500000045000100440001CB
:105EC00000430000004300010042000000420001C6
:105ED000004100000041000100400001003F0000BF
:105EE000003F0001003E0000003E0001003D0000B8
:105EF000003D0001003C0000003C0000003C0001AF
:105F0000003B0000003B0001003A0000003A0001A5
:105F1000003900000039000100380000003800009E
:105F20000038000100370000003700010036000093
:105F3000003600000036000100350000003500008A
:105F4000003500010034000000340000003400017E
:105F50000033000000330000003300010032000075
:105F6000003200000032000100310000003100006A
:105F7000003100010030000000300000003000015E
:105F8000002F0000002F0000002F0000002F000154
:105F9000002E0000002E0000002E0001002D000049
:105FA000002D0000002D0000002D0001002C00003D
:105FB000002C0000002C0000002C0001002B000031
:105FC000002B0000002B0000002B0001002A000025
:105FD000002A0000002A0000002A00010029000019
:105FE000002900000029000000290000002900010C
:105FF0000028000000280000002800000028000001
:1060000000280001002700000027000000270000F2
:1060100000270000002700010026000000260000E5
:1060200000260000002600000026000100250000D8
:1060300000250000002500000025000000250000CC
:1060400000250001002400000024000000240000BE
:1060500000240000002400010023000000230000B1
:1060600000230000002300000023000000230000A4
:106070000023000100220000002200000022000096
:106080000022000000220000002200010021000088
:10609000002100000021000000210000002100007C
:1060A000002100000021000100200000002000006D
:1060B0000020000000200000002000000020000060
:1060C0000020000000200001001F0000001F000051
:1060D000001F0000001F0000001F0000001F000044
:1060E000001F0001001E0000001E0000001E000036
:1060F000001E0000004572723A204D494E54454D35
:1061000050204245440054656D706572617475722B
:1061100065206865617465642062656420737769D1
:106120007463686564206F66662E204D494E544541
:106130004D5020747269676765726564202100455F
:1061400072723A204D415854454D5020424544000A
:1061500054656D70657261747572652068656174EF
:106160006564206265642073776974636865642080
:106170006F66662E204D415854454D50207472690B
:106180006767657265642021004572723A204D4947
:106190004E54454D50003A204578747275646572CE
:1061A000207377697463686564206F66662E204D7E
:1061B000494E54454D502074726967676572656435
:1061C0002021004572723A204D415854454D5000EF
:1061D0003A204578747275646572207377697463C8
:1061E000686564206F66662E204D415854454D50B9
:1061F0002074726967676572656420210045727258
:106200003A205052494E542046414E204552524F5A
:1062100052005072696E742066616E2073706565FD
:1062200064206973206C6F776572207468656E20D6
:106230006578706563746564004572723A204558EC
:1062400054522E2046414E204552524F520045781E
:106250007472756465722066616E20737065656422
:10626000206973206C6F776572207468656E206595
:1062700078706563746564002F2F20616374696FA3
:106280006E3A70617573650020484F54454E442046
:10629000544845524D414C2052554E4157415900AA
:1062A000204845415442454420544845524D414CB4
:1062B0002052554E4157415900544845524D414C8A
:1062C0002052554E415741590042454420544845BB
:1062D000524D414C2052554E41574159002054488F
:1062E00045524D414C2052554E415741592028208E
:1062F0005052454845415420484F54454E4429008A
:1063000020544845524D414C2052554E4157415919
:106310002028205052454845415420484541544288
:106320004544290050524548454154204552524F5A
:106330005200424544205052454845415420455260
:10634000524F5200504944204175746F74756E6508
:106350002066696E697368656421205075742074C5
:106360006865206C617374204B702C204B69206130
:106370006E64204B6420636F6E7374616E7473205F
:1063800066726F6D2061626F766520696E746F2032
:10639000436F6E66696775726174696F6E2E68000F
:1063A000504944204175746F74756E65206661694B
:1063B0006C6564212074696D656F75740020403AC6
:1063C00000543A00423A00504944204175746F74B9
:1063D000756E65206661696C6564212054656D7019
:1063E0006572617475726520746F6F206869676883
:1063F00000204B643A2000204B693A2000204B706B
:106400003A200020436C6173736963205049442033
:10641000002054753A2000204B753A2000206D6111
:10642000783A2000206D696E3A200020643A2000FE
:1064300020626961733A20001000C90210012C012A
:106440004001220170011801B0010E01F0010401A8
:106450005002FA00B002F0003003E600D003DC0086
:106460009004D2007005C800A006BE000008B40069
:10647000B009AA00D00BA000600E960060118C003D
:106480000015820020197800C01D6E00A022640053
:10649000B0275A00902C500000314600E0343C00F8
:1064A00010383200903A2800603C1E00A03D1400D5
:1064B000803E0A00203F000070012C01900127015E
:1064C000B0012201C0011D01F001180110021301E9
:1064D00030020E016002090190020401C002FF00B7
:1064E0000003FA004003F5008003F000D003EB0046
:1064F0002004E6007004E100E004DC004005D70061
:10650000C005D2004006CD00D006C8008007C300F9
:106510003008BE00F008B900C009B400B00AAF00EE
:10652000B00BAA00D00CA500000EA000500F9B00DD
:10653000C01096005012910000148C00C015870006
:10654000B0178200B0197D00D01B7800001E7300C8
:1065500040206E0090226900F024640040275F0014
:1065600090295A00E02B5500102E500020304B008F
:1065700010324600E033410090353C0010373700C0
:1065800070383200A0392D00B03A2800A03B23001B
:10659000603C1E00103D1900903D1400103E0F009D
:1065A000703E0A00C03E0500003F0000FFFF43614F
:1065B00072642072656D6F76656400FFFF436172DF
:1065C0006420696E73657274656400FFFF46696CD0
:1065D0006520696E636F6D706C6574652E20436F06
:1065E0006E74696E756520616E797761793F00FF21
:1065F000FF46696C616D656E742073656E736F72B2
:106600003A00FFFF5072696E742066616E3A00FFB7
:10661000FF45787472756465722066616E3A00FF9A
:10662000FF416C6C20636F727265637420202020C0
:10663000202000FFFF436865636B696E67205A2066
:1066400061786973202000FFFF436865636B696EA2
:106650006720592061786973202000FFFF43686537
:10666000636B696E6720582061786973202000FF92
:10667000FF436865636B696E6720686F74656E645D
:10668000202000FFFF436865636B696E6720656EBD
:106690006473746F707300FFFF46696C616D656EA3
:1066A000742073656E736F7200FFFF5377617070B3
:1066B000656400FFFF46726F6E742F6C6566742010
:1066C00066616E7300FFFF4178697300FFFF4178D8
:1066D0006973206C656E67746800FFFF4C6F6F73A1
:1066E000652070756C6C657900FFFF456E6473748E
:1066F0006F70206E6F742068697400FFFF456E64D0
:1067000073746F7000FFFF456E6473746F70730075
:10671000FFFF426564202F2048656174657200FFA9
:10672000FF4E6F7420636F6E6E656374656400FF67
:10673000FF4865617465722F546865726D69737482
:106740006F7200FFFF506C6561736520636865635D
:106750006B203A00FFFF53656C66746573742065A7
:1067600072726F72202100FFFF53656C66207465A2
:106770007374204F4B00FFFF53656C662074657384
:1067800074207374617274202000FFFF4572726F71
:1067900072202D20737461746963206D656D6F7252
:1067A0007920686173206265656E206F7665727707
:1067B00072697474656E00FFFF506C6561736520CB
:1067C0006C6F616420504C412066696C616D656E30
:1067D0007420616E64207468656E20726573756DD7
:1067E000652057697A617264206279207265626FF0
:1067F0006F74696E6720746865207072696E746565
:10680000722E00FFFF506C6561736520636C6561DB
:106810006E206865617462656420616E64207468CE
:10682000656E20707265737320746865206B6E6F7F
:10683000622E00FFFF446F20796F752077616E74C0
:1068400020746F20726570656174206C61737420B0
:106850007374657020746F20726561646A757374F7
:106860002064697374616E63652062657477656521
:106870006E206E6F7A7A6C6520616E642068656147
:10688000746265643F00FFFF492077696C6C207378
:106890007461727420746F207072696E74206C69F8
:1068A0006E6520616E6420796F752077696C6C204D
:1068B0006772616475616C6C79206C6F77657220AA
:1068C000746865206E6F7A7A6C6520627920726FC9
:1068D000746174696E6720746865206B6E6F622CDA
:1068E00020756E74696C20796F75207265616368BC
:1068F000206F7074696D616C206865696768742EBB
:1069000020436865636B20746865207069637475E3
:1069100072657320696E206F75722068616E6462A3
:106920006F6F6B20696E20636861707465722043BD
:10693000616C6962726174696F6E2E00FFFF4E6F49
:106940007720492077696C6C2063616C69627261A1
:1069500074652064697374616E6365206265747721
:1069600065656E20746970206F6620746865206E9E
:106970006F7A7A6C6520616E642068656174626507
:106980006420737572666163652E00FFFF49732092
:10699000697420504C412066696C616D656E743F6E
:1069A00000FFFF506C6561736520696E73657274DA
:1069B00020504C412066696C616D656E7420746F67
:1069C000207468652065787472756465722C207413
:1069D00068656E207072657373206B6E6F622074D1
:1069E0006F206C6F61642069742E00FFFF4E6F771B
:1069F00020492077696C6C2070726568656174202D
:106A00006E6F7A7A6C6520666F7220504C412E0052
:106A1000FFFF49732066696C616D656E74206C6F51
:106A2000616465643F00FFFF492077696C6C2072E8
:106A3000756E207A2063616C6962726174696F6E31
:106A4000206E6F772E00FFFF492077696C6C2072F3
:106A5000756E2078797A2063616C696272617469FD
:106A60006F6E206E6F772E2049742077696C6C20D2
:106A700074616B6520617070726F782E20313220E6
:106A80006D696E732E00FFFF46697273742C204986
:106A90002077696C6C2072756E2074686520736550
:106AA0006C667465737420746F20636865636B2013
:106AB0006D6F737420636F6D6D6F6E20617373659E
:106AC0006D626C792070726F626C656D732E00FF61
:106AD000FF48692C204920616D20796F7572204F25
:106AE000726967696E616C205072757361206933D9
:106AF000207072696E7465722E20576F756C6420F9
:106B0000796F75206C696B65206D6520746F2067E7
:106B10007569646520796F75207468726F75676830
:106B2000207468652073657475702070726F63657A
:106B300073733F00FFFF52756E6E696E6720576971
:106B40007A6172642077696C6C2064656C65746529
:106B50002063757272656E742063616C6962726124
:106B600074696F6E20726573756C747320616E64E6
:106B70002073746172742066726F6D207468652072
:106B8000626567696E6E696E672E20436F6E746909
:106B90006E75653F00FFFF506C65617365206C6F1B
:106BA000616420504C412066696C616D656E742093
:106BB00066697273742E00FFFF497320504C4120A8
:106BC00066696C616D656E74206C6F616465643FAD
:106BD00000FFFF43616C69627261746500FFFF43EF
:106BE0006F70792073656C6563746564206C616E89
:106BF00067756167652066726F6D2058464C41531A
:106C0000483F00FFFF54656D706572617475726571
:106C10002063616C6962726174696F6E206661697C
:106C20006C656400FFFF58595A2063616C69627299
:106C30006174696F6E20616C6C2072696768742E74
:106C400020536B65772077696C6C20626520636FD9
:106C500072726563746564206175746F6D617469C7
:106C600063616C6C792E00FFFF58595A2063616C88
:106C70006962726174696F6E20616C6C2072696701
:106C800068742E20582F59206178657320617265D1
:106C900020736C696768746C7920736B65776564C1
:106CA0002E20476F6F64206A6F622100FFFF5859E2
:106CB0005A2063616C6962726174696F6E206F6BD8
:106CC0002E20582F592061786573206172652070DD
:106CD000657270656E646963756C61722E20436FB6
:106CE0006E67726174756C6174696F6E732100FFF9
:106CF000FF58595A2063616C6962726174696F6EE2
:106D000020636F6D70726F6D697365642E204C65C2
:106D100066742066726F6E742063616C6962726162
:106D200074696F6E20706F696E74206E6F7420725C
:106D30006561636861626C652E00FFFF58595A20D7
:106D400063616C6962726174696F6E20636F6D70EC
:106D5000726F6D697365642E20526967687420666E
:106D6000726F6E742063616C6962726174696F6EB8
:106D700020706F696E74206E6F7420726561636835
:106D800061626C652E00FFFF58595A2063616C697F
:106D900062726174696F6E20636F6D70726F6D697E
:106DA0007365642E2046726F6E742063616C696235
:106DB000726174696F6E20706F696E7473206E6F8C
:106DC0007420726561636861626C652E00FFFF412B
:106DD0007265206C65667420616E642072696768F4
:106DE00074205A7E63617272696167657320616C99
:106DF0006C2075703F00FFFF43616C6962726174C3
:106E0000696E672058595A2E20526F74617465203C
:106E1000746865206B6E6F6220746F206D6F76658D
:106E200020746865205A2063617272696167652009
:106E3000757020746F2074686520656E64207374AB
:106E40006F70706572732E20436C69636B20776876
:106E5000656E20646F6E652E00FFFF43616C696292
:106E6000726174696E67205A2E20526F7461746566
:106E700020746865206B6E6F6220746F206D6F7672
:106E80006520746865205A20636172726961676564
:106E900020757020746F2074686520656E6420739F
:106EA000746F70706572732E20436C69636B20770A
:106EB00068656E20646F6E652E00FFFF5761697410
:106EC000696E6720666F72206E6F7A7A6C652061DA
:106ED0006E642062656420636F6F6C696E6700FF8B
:106EE000FF57616974696E6720666F722050494E62
:106EF00044412070726F626520636F6F6C696E67CA
:106F000000FFFF5365742074656D70657261747560
:106F100072653A00FFFF526573657400FFFF5265AA
:106F200061722073696465205B756D5D00FFFF46CB
:106F3000726F6E7420736964655B756D5D00FFFF31
:106F4000526967687420736964655B756D5D00FFE5
:106F5000FF4C6566742073696465205B756D5D0028
:106F6000FFFF546F74616C2066696C616D656E74AF
:106F700000FFFF546F74616C207072696E7420742E
:106F8000696D6500FFFF46696C616D656E74207503
:106F900073656400FFFF5072696E742074696D65DB
:106FA00000FFFF436F6C6F72206E6F7420636F720F
:106FB0007265637400FFFF46696C616D656E7420D5
:106FC0006E6F74206C6F6164656400FFFF436861DD
:106FD0006E67656420636F72726563746C793F00DD
:106FE000FFFF4C6F6164696E6720636F6C6F7200A6
:106FF000FFFF4368616E6765207375636365737334
:107000002100FFFF616E64207072657373207468E5
:1070100065206B6E6F6200FFFF496E7365727420AE
:1070200066696C616D656E7400FFFF4368616E6731
:10703000696E672066696C616D656E742100FFFF83
:10704000536F756E642020202020205B6C6F756468
:107050005D00FFFF536F756E642020202020205BB1
:107060006D7574655D00FFFF536F756E64202020A1
:10707000205B73696C656E745D00FFFF536F756E06
:10708000642020202020205B6F6E63655D00FFFF81
:10709000536F756E642020202020205B6C6F756418
:1070A0005D00FFFF466C6F7700FFFF5370656564FE
:1070B00000FFFF4C6F61642066696C616D656E74E2
:1070C000203500FFFF4C6F61642066696C616D655F
:1070D0006E74203400FFFF4C6F61642066696C6140
:1070E0006D656E74203300FFFF4C6F61642066692C
:1070F0006C616D656E74203200FFFF4C6F6164201F
:1071000066696C616D656E74203100FFFF4C6F61C4
:107110006420616C6C00FFFF456A656374206669DA
:107120006C616D656E74203500FFFF456A656374A0
:107130002066696C616D656E74203400FFFF456ADE
:107140006563742066696C616D656E74203300FF41
:10715000FF456A6563742066696C616D656E7420B5
:107160003200FFFF456A6563742066696C616D6576
:107170006E74203100FFFF556E6C6F61642066698C
:107180006C616D656E74203500FFFF556E6C6F612C
:10719000642066696C616D656E74203400FFFF5574
:1071A0006E6C6F61642066696C616D656E7420330E
:1071B00000FFFF556E6C6F61642066696C616D65E0
:1071C0006E74203200FFFF556E6C6F61642066693B
:1071D0006C616D656E74203100FFFF556E6C6F61E0
:1071E0006420616C6C00FFFF457874727564657291
:1071F000203400FFFF457874727564657220330097
:10720000FFFF4578747275646572203200FFFF4598
:1072100078747275646572203100FFFF4175746F78
:107220006C6F6164696E672066696C616D656E7410
:10723000206973206163746976652C206A757374A4
:1072400020707265737320746865206B6E6F6220A6
:10725000616E6420696E736572742066696C616D1D
:10726000656E742E2E2E00FFFF457874727564656E
:107270007200FFFF4D6F7665205A00FFFF4D6F765D
:1072800065205900FFFF4D6F7665205800FFFF45D0
:1072900052524F523A2046696C616D656E7420738C
:1072A000656E736F72206973206E6F7420726573E0
:1072B000706F6E64696E672C20706C6561736520F9
:1072C000636865636B20636F6E6E656374696F6E70
:1072D0002E00FFFF4175746F6C6F6164696E6720EB
:1072E00066696C616D656E7420617661696C61625E
:1072F0006C65206F6E6C79207768656E2066696CAE
:10730000616D656E742073656E736F722069732092
:107310007475726E6564206F6E2E2E2E00FFFF5303
:107320006F756E642020202020205B6C6F75645D7B
:1073300000FFFF536F756E642020202020205B6DBE
:107340007574655D00FFFF536F756E64202020200B
:107350005B73696C656E745D00FFFF536F756E64DF
:107360002020202020205B6F6E63655D00FFFF53AF
:107370006F756E642020202020205B6C6F75645D2B
:1073800000FFFF536F72743A2020202020205B6E94
:107390006F6E655D00FFFF536F72743A20205B6172
:1073A0006C7068616265745D00FFFF536F72743AC0
:1073B0002020202020205B74696D655D00FFFF5355
:1073C00044206361726420205B6E6F726D616C5D3E
:1073D00000FFFF53442063617264205B666C736836
:1073E0004169725D00FFFF53656C656374206C61D9
:1073F0006E677561676500FFFF54656D702E2063D1
:10740000616C2E2020205B6F6E5D00FFFF54656D68
:10741000702E2063616C2E20205B6F66665D00FF1E
:10742000FF46616E7320636865636B20205B6F6647
:10743000665D00FFFF46616E7320636865636B20C5
:1074400020205B6F6E5D00FFFF4175746F206465E7
:10745000706C6574655B6F66665D00FFFF417574F7
:107460006F206465706C657465205B6F6E5D00FFF6
:10747000FF462E206175746F6C6F6164205B6F66D0
:10748000665D00FFFF462E206175746F6C6F61644E
:1074900020205B6F6E5D00FFFF46696C2E207365D8
:1074A0006E736F72205B4E2F415D00FFFF44697366
:1074B00061626C6520737465707065727300FFFFA4
:1074C0004D6F7665206178697300FFFF54656D70BC
:1074D0006572617475726500FFFF54656D702E20D2
:1074E00063616C6962726174696F6E00FFFF52655F
:1074F0007365742058595A2063616C6962722E005A
:10750000FFFF53686F7720656E642073746F70732C
:1075100000FFFF5049442063616C696272617469C5
:107520006F6E00FFFF426564206C6576656C2063BA
:107530006F727265637400FFFF4D6573682042656A
:1075400064204C6576656C696E6700FFFF43616C73
:107550006962726174652058595A00FFFF53656C67
:10756000667465737420202020202020202000FFD6
:10757000FF4669727374206C617965722063616C77
:107580002E00FFFF57697A61726400FFFF5B303B9A
:10759000305D20706F696E74206F6666736574006D
:1075A000FFFF4D6561737572656420736B657700CD
:1075B000FFFF536C6967687420736B657700FFFF8A
:1075C00053657665726520736B657700FFFF592000
:1075D00064697374616E63652066726F6D206D6996
:1075E0006E00FFFF4C65667400FFFF5269676874A8
:1075F00000FFFF54656D706572617475726573008C
:10760000FFFF457874727564657220696E666F005D
:10761000FFFF58595A2063616C2E206465746169BC
:107620006C7300FFFF446174653A00FFFF686F7779
:10763000746F2E707275736133642E636F6D00FF0B
:10764000FF666F72756D2E707275736133642E6391
:107650006F6D00FFFF707275736133642E636F6D21
:1076600000FFFF537570706F727400FFFF537461F9
:1076700074697374696373202000FFFF4175746F30
:107680004C6F61642066696C616D656E7400FFFF0C
:107690004368616E67652065787472756465720011
:1076A000FFFF456A6563742066696C616D656E7481
:1076B00000FFFF4E6F205344206361726400FFFFA0
:1076C000526573756D65207072696E7400FFFF50AE
:1076D00061757365207072696E7400FFFF5072658A
:1076E0006865617400FFFF54756E6500FFFF4375A8
:1076F0007272656E7400FFFF557365642064757265
:10770000696E67207072696E7400FFFF41646A756C
:107710007374696E67205A00FFFF5049442063610B
:107720006C2E2066696E697368656400FFFF5049BE
:10773000442063616C2E2020202020202020202047
:107740002000FFFF5072696E74207061757365646C
:1077500000FFFF50494E44412048656174696E67DF
:1077600000FFFF43616C6962726174696F6E20642F
:107770006F6E65004D3234004D3233202573004367
:10778000616C6962726174696E6720686F6D650013
:107790006C63645F73656C66636865636B5F617877
:1077A00069732025642C2025640A004D3834004775
:1077B00031205A31352046313030300047323820C0
:1077C000570043686F6F736520636F6C6F723A0088
:1077D000436F6E74696E7565207769746820616E99
:1077E0006F7468657220626F7764656E3F005769D9
:1077F0007A61726420656E642073746174653A20E6
:1078000025640A001B5B324A2553203A1B5B313B3F
:10781000394825382E3266206D0A2553203A0A252C
:10782000376C6464203A253268686468203A2530F1
:1078300032686864206D001B5B324A25533A1B5B3B
:10784000313B364825382E32666D200A2553203AC2
:107850001B5B333B38482532646820253032646D29
:10786000202530326473001B5B303B3135484E2F8E
:1078700041001B5B303B31354825342E3266010018
:107880001B5B303B304825533A0A25530A25533AAF
:10789000202025352E3266010A25533A2020253531
:1078A0002E3266010025362E32666D6D004E2F4158
:1078B000001B5B303B304825533A0A25530A2553B9
:1078C0003A0A25533A0046696C2E2058643A25330B
:1078D000642059643A2533640A496E743A2025338A
:1078E000642020536875743A202533640046696C1F
:1078F000616D656E742073656E736F720A697320B3
:1079000064697361626C65642E001B5B303B3048B8
:107910004E6F7A7A6C652046414E3A2025346420B9
:1079200052504D0A5072696E742046414E3A2020E2
:107930002534642052504D0A0025632D2D3A2D2DFB
:107940002020002563253032753A253032752563B5
:107950002563002046302020002025753E25750037
:1079600020462575002533532533732525002D2DFD
:107970002D00253368686400202020002053440037
:107980005553420025632533642525005A25362E9C
:10799000326620005A2020202D2D2D200025632521
:1079A00033642F256425630057697A6172642073FC
:1079B000746174653A20256400473736004D3435CC
:1079C000205A004D3435004738300054656D7065DD
:1079D0007261747572652063616C69627261746949
:1079E0006F6E206661696C65642E20436F6E7469EA
:1079F0006E75652077697468207072657373696E3F
:107A00006720746865206B6E6F622E0054656D7020
:107A1000657261747572652063616C69627261740C
:107A2000696F6E20646F6E652E20436F6E74696E91
:107A300075652077697468207072657373696E6705
:107A400020746865206B6E6F622E0020003E003E41
:107A50000020003E003E003E003E0020003E003E72
:107A60000020004D373032004D36303000464C4556
:107A700058202D20203234302F3530005050202017
:107A8000202D20203235342F3130300048495053DA
:107A9000202D20203232302F31303000414253200F
:107AA000202D20203235352F3130300050455420E4
:107AB000202D20203233302F383500504C412020EB
:107AC0002D20203231352F363000414253202020E6
:107AD000202D20203235352F313030006E6F7A7AEC
:107AE0006C65202D20203235302F30006661726D9C
:107AF0002020202D20203235302F343000052E2E2E
:107B0000004D37303100580059005A0045787472E2
:107B100075646572004739390044697361626C6548
:107B2000206661726D206D6F64653F00446973610A
:107B3000626C65206661726D206D6F6465004661E0
:107B4000726D206E756D626572004D3834005A306A
:107B5000005A310059300059310058300058310076
:107B6000456E642073746F70732064696167004DA3
:107B70003434004732382057001B5B303B30484CD0
:107B8000617374207072696E74206661696C7572BD
:107B900065731B5B313B314846696C616D2E207209
:107BA000756E6F7574732020252D33641B5B323B1B
:107BB0003048546F74616C206661696C75726573CE
:107BC0001B5B333B314846696C616D2E2072756ECC
:107BD0006F7574732020252D3364006D6D0000597E
:107BE0000058001B5B323B314850494E44413A201B
:107BF00020202025642563001B5B303B31484E6FFD
:107C00007A7A6C653A202020256425631B5B313B22
:107C100031484265643A20202020202025642563D5
:107C200000466C6173684169722049502041646468
:107C3000723A004D4D5532202020202020204E2F1A
:107C40004100756E6B6E6F776E0025642E25642E75
:107C500025642D2564002046573A004D4D553220AD
:107C6000636F6E6E6563746564004E6F76203132AB
:107C7000203230313800453344763666756C6C00FE
:107C800052414D426F31336100315F37356D6D5F69
:107C90004D4B323500207265706F20556E6B6E6FE4
:107CA000776E0020332E342E322D3133363000469D
:107CB00069726D776172653A0025642E25642E2500
:107CC000642E2564004661696C20737461747300CE
:107CD0004D3730322043004661726D206E756D6203
:107CE000657200496E76616C696420504944206376
:107CF000616C2E20726573756C74732E204E6F74D8
:107D00002073746F72656420746F20454550524F24
:107D10004D2E004D353030004731205A3135204648
:107D20003135303000473931004731205835302067
:107D3000593139302045302046373030300047390E
:107D400030004D373032004D3730322043004D3750
:107D500030322055004D373032004D37303220431D
:107D6000004731205A31352046313530300047390F
:107D700031004731205835302059313930204530D5
:107D8000204637303030004D383300473930004D11
:107D90003834004D313034205330004D3834004DEC
:107DA00037303220430047312058313020593138A4
:107DB00030204634303030004731205A31302046B0
:107DC000313330302E303030004D313430205330AC
:107DD000004D31303420533000473120452D302EB6
:107DE00030373530302046323130302E3030303080
:107DF00030004D313037004731205835302059356B
:107E0000352045332E36323737330047312058324C
:107E10003030205935352045302E3439333836004E
:107E200047312058323030205937352045332E36EF
:107E30003237373300473120583530205937352015
:107E400045302E343933383600473120583530200C
:107E50005939352045332E363237373300473120F4
:107E600058323030205939352045302E34393338A6
:107E700036004731205832303020593131352045D5
:107E8000332E3632373733004731205835302059BA
:107E90003131352045302E343933383600473120E2
:107EA00058353020593133352045332E3632373767
:107EB0003300473120583230302059313335204596
:107EC000302E3636313734004731205832303020AA
:107ED000593135352045322E363237373300473168
:107EE0002058313030205931353520453200473166
:107EF0002058373520593135352045322E35004749
:107F00003120463130383000473120583530205943
:107F1000313535004731204634303030004D323075
:107F200034205331303030004731205A302E313533
:107F3000302046373230302E303030004731204547
:107F40002D312E35303030302046323130302E3029
:107F500030303030004D383300473930004732314F
:107F6000004739322045302E30004731205831301B
:107F7000302E30204531322E352046313030302EF3
:107F800030004731205836302E302045392E3020F1
:107F900046313030302E30004739322045302E30D7
:107FA0000047323800543F004D31303920533231D0
:107FB00035004D31393020533630004D31343020CA
:107FC000533630004D3130342053323135004D318D
:107FD00030370047393000473120456465666175A8
:107FE0006C745F72657472616374696F6E004D3892
:107FF00032004731204564656661756C745F726557
:108000007472616374696F6E004D3833004D3130A6
:108010003620532564004D32323020532564003A17
:108020002000202020202020202020202020202070
:10803000202020202000203A200020202020202066
:108040002020202020202020202020202020002050
:108050002020202020202020202020200025730008
:108060002D2D2D2D2D2D2D2D2D2D2D2D002D2D2D6D
:108070002D2D2D2D2D2D2D2D2D2D2D2D2D2D2D2D30
:108080002D00FFFF506C656173652075706772612C
:1080900064652E00FFFF4E6577206669726D77611B
:1080A00072652076657273696F6E20617661696CA6
:1080B00061626C653A000072630062657461006120
:1080C0006C706861006465760050525553413344CA
:1080D000465700332E342E3200706F696E743D2582
:1080E0006420783D256420793D2564207A3D25640F
:1080F0000A0078797A63616C5F66696E645F6265B5
:10810000645F696E64756374696F6E5F73656E73C7
:108110006F725F706F696E745F787920783D256C3F
:108120006420793D256C64207A3D256C640A00202A
:10813000783D256420793D2564207A3D25640A0038
:10814000207061747465726E20666F756E64206154
:10815000742025642025640A0073697A656F662897
:10816000746F74616C293D25640A0073697A656FC8
:108170006628626C6F636B5F627566666572293D27
:1081800025640A0078797A63616C5F736561726354
:10819000685A206E6F207369676E616C0A20783DA3
:1081A000256C6420793D256C64207A3D256C640A39
:1081B00000204F4E2D5349474E414C20617420788A
:1081C0003D256420793D2564207A3D256420616445
:1081D0003D25640A0078797A63616C5F736561722A
:1081E00063685A20783D256C6420793D256C6420B5
:1081F0007A3D256C640A002079303D25640A002010
:1082000078303D25640A004F4B0A004552524F52C8
:108210002061643D25640A002020207A303D2564D9
:108220000A00207A303D25640A002079303D25641B
:108230000A002078303D25640A0078797A63616C01
:108240005F66696E645F706F696E745F63656E749C
:108250006572320A006D61785F633D2564206D614F
:10826000785F723D2564206D61785F6D617463682D
:108270003D25640A000A002530327800206D696EC1
:108280003D2564206D61783D2564206469663D2547
:10829000640A006D61785F633D253264206D61780A
:1082A0005F6C3D25640A00202532642025640A00A5
:1082B0000A00253032780078797A63616C5F7363E5
:1082C000616E5F706978656C735F3332783332202A
:1082D00063783D25642063793D2564206D696E5F78
:1082E0007A3D2564206D61785F7A3D25640A0078C7
:1082F000797A63616C5F73706972616C382063783E
:108300003D25642063793D2564207A303D25642035
:10831000647A3D2564207261646975733D2564202B
:1083200061643D25640A0078797A63616C5F7370DB
:108330006972616C322063783D25642063793D2544
:1083400064207A303D256420647A3D256420726182
:10835000646975733D25642061643D25640A007875
:10836000797A63616C5F6D656173737572655F6C5B
:10837000656176650A0078797A63616C5F6D656125
:1083800073737572655F656E7465720A000000F044
:1083900000F801FC03FE07FE07FE07FE07FC03F8DA
:1083A00001F0000000BC02BC02584D584DB004F072
:1083B00055F055B00400000A0B02090C0D0E080719
:1083C00003040100000000000000000000000000A5
:1083D000000000000000000000000000000000009D
:1083E000001211100000000000000000000000005A
:1083F000000000000000000000000000000000007D
:108400000000000000000000000000010210202019
:1084100008081020401020408002010201080402D8
:10842000010102040810204080804020100804024E
:1084300001800402018040201008040201080402A7
:1084400001010204081020408001020408102040AD
:108450008010080408801020400440801020400450
:108460008005050505070508080808020202020A3A
:108470000A080804040404010101010101010103C7
:1084800003030303030303040707070C0C0C0C0C82
